{
  "_format": "hh-sol-artifact-1",
  "contractName": "MyToken",
  "sourceName": "contracts/Token.sol",
  "abi": [
    {
      "inputs": [
        {
          "internalType": "uint256",
          "name": "initialSupply",
          "type": "uint256"
        },
        {
          "internalType": "uint256",
          "name": "initialPrice",
          "type": "uint256"
        }
      ],
      "stateMutability": "payable",
      "type": "constructor"
    },
    {
      "inputs": [
        {
          "internalType": "address",
          "name": "spender",
          "type": "address"
        },
        {
          "internalType": "uint256",
          "name": "allowance",
          "type": "uint256"
        },
        {
          "internalType": "uint256",
          "name": "needed",
          "type": "uint256"
        }
      ],
      "name": "ERC20InsufficientAllowance",
      "type": "error"
    },
    {
      "inputs": [
        {
          "internalType": "address",
          "name": "sender",
          "type": "address"
        },
        {
          "internalType": "uint256",
          "name": "balance",
          "type": "uint256"
        },
        {
          "internalType": "uint256",
          "name": "needed",
          "type": "uint256"
        }
      ],
      "name": "ERC20InsufficientBalance",
      "type": "error"
    },
    {
      "inputs": [
        {
          "internalType": "address",
          "name": "approver",
          "type": "address"
        }
      ],
      "name": "ERC20InvalidApprover",
      "type": "error"
    },
    {
      "inputs": [
        {
          "internalType": "address",
          "name": "receiver",
          "type": "address"
        }
      ],
      "name": "ERC20InvalidReceiver",
      "type": "error"
    },
    {
      "inputs": [
        {
          "internalType": "address",
          "name": "sender",
          "type": "address"
        }
      ],
      "name": "ERC20InvalidSender",
      "type": "error"
    },
    {
      "inputs": [
        {
          "internalType": "address",
          "name": "spender",
          "type": "address"
        }
      ],
      "name": "ERC20InvalidSpender",
      "type": "error"
    },
    {
      "inputs": [
        {
          "internalType": "address",
          "name": "owner",
          "type": "address"
        }
      ],
      "name": "OwnableInvalidOwner",
      "type": "error"
    },
    {
      "inputs": [
        {
          "internalType": "address",
          "name": "account",
          "type": "address"
        }
      ],
      "name": "OwnableUnauthorizedAccount",
      "type": "error"
    },
    {
      "anonymous": false,
      "inputs": [
        {
          "indexed": true,
          "internalType": "address",
          "name": "owner",
          "type": "address"
        },
        {
          "indexed": true,
          "internalType": "address",
          "name": "spender",
          "type": "address"
        },
        {
          "indexed": false,
          "internalType": "uint256",
          "name": "value",
          "type": "uint256"
        }
      ],
      "name": "Approval",
      "type": "event"
    },
    {
      "anonymous": false,
      "inputs": [
        {
          "indexed": true,
          "internalType": "address",
          "name": "previousOwner",
          "type": "address"
        },
        {
          "indexed": true,
          "internalType": "address",
          "name": "newOwner",
          "type": "address"
        }
      ],
      "name": "OwnershipTransferred",
      "type": "event"
    },
    {
      "anonymous": false,
      "inputs": [
        {
          "indexed": false,
          "internalType": "uint256",
          "name": "oldPrice",
          "type": "uint256"
        },
        {
          "indexed": false,
          "internalType": "uint256",
          "name": "newPrice",
          "type": "uint256"
        }
      ],
      "name": "TokenPriceUpdated",
      "type": "event"
    },
    {
      "anonymous": false,
      "inputs": [
        {
          "indexed": true,
          "internalType": "address",
          "name": "buyer",
          "type": "address"
        },
        {
          "indexed": false,
          "internalType": "uint256",
          "name": "amount",
          "type": "uint256"
        },
        {
          "indexed": false,
          "internalType": "uint256",
          "name": "cost",
          "type": "uint256"
        }
      ],
      "name": "TokensPurchased",
      "type": "event"
    },
    {
      "anonymous": false,
      "inputs": [
        {
          "indexed": true,
          "internalType": "address",
          "name": "from",
          "type": "address"
        },
        {
          "indexed": true,
          "internalType": "address",
          "name": "to",
          "type": "address"
        },
        {
          "indexed": false,
          "internalType": "uint256",
          "name": "value",
          "type": "uint256"
        }
      ],
      "name": "Transfer",
      "type": "event"
    },
    {
      "inputs": [
        {
          "internalType": "address",
          "name": "owner",
          "type": "address"
        },
        {
          "internalType": "address",
          "name": "spender",
          "type": "address"
        }
      ],
      "name": "allowance",
      "outputs": [
        {
          "internalType": "uint256",
          "name": "",
          "type": "uint256"
        }
      ],
      "stateMutability": "view",
      "type": "function"
    },
    {
      "inputs": [
        {
          "internalType": "address",
          "name": "spender",
          "type": "address"
        },
        {
          "internalType": "uint256",
          "name": "value",
          "type": "uint256"
        }
      ],
      "name": "approve",
      "outputs": [
        {
          "internalType": "bool",
          "name": "",
          "type": "bool"
        }
      ],
      "stateMutability": "nonpayable",
      "type": "function"
    },
    {
      "inputs": [
        {
          "internalType": "address",
          "name": "account",
          "type": "address"
        }
      ],
      "name": "balanceOf",
      "outputs": [
        {
          "internalType": "uint256",
          "name": "",
          "type": "uint256"
        }
      ],
      "stateMutability": "view",
      "type": "function"
    },
    {
      "inputs": [],
      "name": "buyTokens",
      "outputs": [],
      "stateMutability": "payable",
      "type": "function"
    },
    {
      "inputs": [],
      "name": "decimals",
      "outputs": [
        {
          "internalType": "uint8",
          "name": "",
          "type": "uint8"
        }
      ],
      "stateMutability": "view",
      "type": "function"
    },
    {
      "inputs": [],
      "name": "name",
      "outputs": [
        {
          "internalType": "string",
          "name": "",
          "type": "string"
        }
      ],
      "stateMutability": "view",
      "type": "function"
    },
    {
      "inputs": [],
      "name": "owner",
      "outputs": [
        {
          "internalType": "address",
          "name": "",
          "type": "address"
        }
      ],
      "stateMutability": "view",
      "type": "function"
    },
    {
      "inputs": [],
      "name": "renounceOwnership",
      "outputs": [],
      "stateMutability": "nonpayable",
      "type": "function"
    },
    {
      "inputs": [],
      "name": "symbol",
      "outputs": [
        {
          "internalType": "string",
          "name": "",
          "type": "string"
        }
      ],
      "stateMutability": "view",
      "type": "function"
    },
    {
      "inputs": [],
      "name": "tokenPrice",
      "outputs": [
        {
          "internalType": "uint256",
          "name": "",
          "type": "uint256"
        }
      ],
      "stateMutability": "view",
      "type": "function"
    },
    {
      "inputs": [],
      "name": "totalSupply",
      "outputs": [
        {
          "internalType": "uint256",
          "name": "",
          "type": "uint256"
        }
      ],
      "stateMutability": "view",
      "type": "function"
    },
    {
      "inputs": [
        {
          "internalType": "address",
          "name": "to",
          "type": "address"
        },
        {
          "internalType": "uint256",
          "name": "value",
          "type": "uint256"
        }
      ],
      "name": "transfer",
      "outputs": [
        {
          "internalType": "bool",
          "name": "",
          "type": "bool"
        }
      ],
      "stateMutability": "nonpayable",
      "type": "function"
    },
    {
      "inputs": [
        {
          "internalType": "address",
          "name": "from",
          "type": "address"
        },
        {
          "internalType": "address",
          "name": "to",
          "type": "address"
        },
        {
          "internalType": "uint256",
          "name": "value",
          "type": "uint256"
        }
      ],
      "name": "transferFrom",
      "outputs": [
        {
          "internalType": "bool",
          "name": "",
          "type": "bool"
        }
      ],
      "stateMutability": "nonpayable",
      "type": "function"
    },
    {
      "inputs": [
        {
          "internalType": "address",
          "name": "newOwner",
          "type": "address"
        }
      ],
      "name": "transferOwnership",
      "outputs": [],
      "stateMutability": "nonpayable",
      "type": "function"
    },
    {
      "inputs": [
        {
          "internalType": "uint256",
          "name": "newPrice",
          "type": "uint256"
        }
      ],
      "name": "updateTokenPrice",
      "outputs": [],
      "stateMutability": "nonpayable",
      "type": "function"
    },
    {
      "inputs": [],
      "name": "withdrawFunds",
      "outputs": [],
      "stateMutability": "nonpayable",
      "type": "function"
    },
    {
      "stateMutability": "payable",
      "type": "receive"
    }
  ],
  "bytecode": "0x60806040526040516126083803806126088339818101604052810190610025919061052f565b336040518060400160405280600781526020017f4d79546f6b656e000000000000000000000000000000000000000000000000008152506040518060400160405280600381526020017f4d544b000000000000000000000000000000000000000000000000000000000081525081600390816100a191906107b5565b5080600490816100b191906107b5565b505050600073ffffffffffffffffffffffffffffffffffffffff168173ffffffffffffffffffffffffffffffffffffffff16036101265760006040517f1e4fbdf700000000000000000000000000000000000000000000000000000000815260040161011d91906108c8565b60405180910390fd5b6101358161017860201b60201c565b5061016a3361014861023e60201b60201c565b600a6101549190610a52565b8461015f9190610a9d565b61024760201b60201c565b806006819055505050610b74565b6000600560009054906101000a900473ffffffffffffffffffffffffffffffffffffffff16905081600560006101000a81548173ffffffffffffffffffffffffffffffffffffffff021916908373ffffffffffffffffffffffffffffffffffffffff1602179055508173ffffffffffffffffffffffffffffffffffffffff168173ffffffffffffffffffffffffffffffffffffffff167f8be0079c531659141344cd1fd0a4f28419497f9722a3daafe3b4186f6b6457e060405160405180910390a35050565b60006012905090565b600073ffffffffffffffffffffffffffffffffffffffff168273ffffffffffffffffffffffffffffffffffffffff16036102b95760006040517fec442f050000000000000000000000000000000000000000000000000000000081526004016102b091906108c8565b60405180910390fd5b6102cb600083836102cf60201b60201c565b5050565b600073ffffffffffffffffffffffffffffffffffffffff168373ffffffffffffffffffffffffffffffffffffffff16036103215780600260008282546103159190610adf565b925050819055506103f4565b60008060008573ffffffffffffffffffffffffffffffffffffffff1673ffffffffffffffffffffffffffffffffffffffff168152602001908152602001600020549050818110156103ad578381836040517fe450d38c0000000000000000000000000000000000000000000000000000000081526004016103a493929190610b22565b60405180910390fd5b8181036000808673ffffffffffffffffffffffffffffffffffffffff1673ffffffffffffffffffffffffffffffffffffffff16815260200190815260200160002081905550505b600073ffffffffffffffffffffffffffffffffffffffff168273ffffffffffffffffffffffffffffffffffffffff160361043d578060026000828254039250508190555061048a565b806000808473ffffffffffffffffffffffffffffffffffffffff1673ffffffffffffffffffffffffffffffffffffffff168152602001908152602001600020600082825401925050819055505b8173ffffffffffffffffffffffffffffffffffffffff168373ffffffffffffffffffffffffffffffffffffffff167fddf252ad1be2c89b69c2b068fc378daa952ba7f163c4a11628f55a4df523b3ef836040516104e79190610b59565b60405180910390a3505050565b600080fd5b6000819050919050565b61050c816104f9565b811461051757600080fd5b50565b60008151905061052981610503565b92915050565b60008060408385031215610546576105456104f4565b5b60006105548582860161051a565b92505060206105658582860161051a565b9150509250929050565b600081519050919050565b7f4e487b7100000000000000000000000000000000000000000000000000000000600052604160045260246000fd5b7f4e487b7100000000000000000000000000000000000000000000000000000000600052602260045260246000fd5b600060028204905060018216806105f057607f821691505b602082108103610603576106026105a9565b5b50919050565b60008190508160005260206000209050919050565b60006020601f8301049050919050565b600082821b905092915050565b60006008830261066b7fffffffffffffffffffffffffffffffffffffffffffffffffffffffffffffffff8261062e565b610675868361062e565b95508019841693508086168417925050509392505050565b6000819050919050565b60006106b26106ad6106a8846104f9565b61068d565b6104f9565b9050919050565b6000819050919050565b6106cc83610697565b6106e06106d8826106b9565b84845461063b565b825550505050565b600090565b6106f56106e8565b6107008184846106c3565b505050565b5b81811015610724576107196000826106ed565b600181019050610706565b5050565b601f8211156107695761073a81610609565b6107438461061e565b81016020851015610752578190505b61076661075e8561061e565b830182610705565b50505b505050565b600082821c905092915050565b600061078c6000198460080261076e565b1980831691505092915050565b60006107a5838361077b565b9150826002028217905092915050565b6107be8261056f565b67ffffffffffffffff8111156107d7576107d661057a565b5b6107e182546105d8565b6107ec828285610728565b600060209050601f83116001811461081f576000841561080d578287015190505b6108178582610799565b86555061087f565b601f19841661082d86610609565b60005b8281101561085557848901518255600182019150602085019450602081019050610830565b86831015610872578489015161086e601f89168261077b565b8355505b6001600288020188555050505b505050505050565b600073ffffffffffffffffffffffffffffffffffffffff82169050919050565b60006108b282610887565b9050919050565b6108c2816108a7565b82525050565b60006020820190506108dd60008301846108b9565b92915050565b7f4e487b7100000000000000000000000000000000000000000000000000000000600052601160045260246000fd5b60008160011c9050919050565b6000808291508390505b600185111561096957808604811115610945576109446108e3565b5b60018516156109545780820291505b808102905061096285610912565b9450610929565b94509492505050565b6000826109825760019050610a3e565b816109905760009050610a3e565b81600181146109a657600281146109b0576109df565b6001915050610a3e565b60ff8411156109c2576109c16108e3565b5b8360020a9150848211156109d9576109d86108e3565b5b50610a3e565b5060208310610133831016604e8410600b8410161715610a145782820a905083811115610a0f57610a0e6108e3565b5b610a3e565b610a21848484600161091f565b92509050818404811115610a3857610a376108e3565b5b81810290505b9392505050565b600060ff82169050919050565b6000610a5d826104f9565b9150610a6883610a45565b9250610a957fffffffffffffffffffffffffffffffffffffffffffffffffffffffffffffffff8484610972565b905092915050565b6000610aa8826104f9565b9150610ab3836104f9565b9250828202610ac1816104f9565b91508282048414831517610ad857610ad76108e3565b5b5092915050565b6000610aea826104f9565b9150610af5836104f9565b9250828201905080821115610b0d57610b0c6108e3565b5b92915050565b610b1c816104f9565b82525050565b6000606082019050610b3760008301866108b9565b610b446020830185610b13565b610b516040830184610b13565b949350505050565b6000602082019050610b6e6000830184610b13565b92915050565b611a8580610b836000396000f3fe6080604052600436106100f75760003560e01c8063715018a61161008a578063a9059cbb11610059578063a9059cbb14610313578063d0febe4c14610350578063dd62ed3e1461035a578063f2fde38b14610397576100fe565b8063715018a61461027b5780637ff9b596146102925780638da5cb5b146102bd57806395d89b41146102e8576100fe565b806324600fc3116100c657806324600fc3146101d3578063313ce567146101ea578063676c0d771461021557806370a082311461023e576100fe565b806306fdde0314610103578063095ea7b31461012e57806318160ddd1461016b57806323b872dd14610196576100fe565b366100fe57005b600080fd5b34801561010f57600080fd5b506101186103c0565b6040516101259190611169565b60405180910390f35b34801561013a57600080fd5b5061015560048036038101906101509190611224565b610452565b604051610162919061127f565b60405180910390f35b34801561017757600080fd5b50610180610475565b60405161018d91906112a9565b60405180910390f35b3480156101a257600080fd5b506101bd60048036038101906101b891906112c4565b61047f565b6040516101ca919061127f565b60405180910390f35b3480156101df57600080fd5b506101e86104ae565b005b3480156101f657600080fd5b506101ff61054f565b60405161020c9190611333565b60405180910390f35b34801561022157600080fd5b5061023c6004803603810190610237919061134e565b610558565b005b34801561024a57600080fd5b506102656004803603810190610260919061137b565b6105ee565b60405161027291906112a9565b60405180910390f35b34801561028757600080fd5b50610290610636565b005b34801561029e57600080fd5b506102a761064a565b6040516102b491906112a9565b60405180910390f35b3480156102c957600080fd5b506102d2610650565b6040516102df91906113b7565b60405180910390f35b3480156102f457600080fd5b506102fd61067a565b60405161030a9190611169565b60405180910390f35b34801561031f57600080fd5b5061033a60048036038101906103359190611224565b61070c565b604051610347919061127f565b60405180910390f35b61035861072f565b005b34801561036657600080fd5b50610381600480360381019061037c91906113d2565b6108e1565b60405161038e91906112a9565b60405180910390f35b3480156103a357600080fd5b506103be60048036038101906103b9919061137b565b610968565b005b6060600380546103cf90611441565b80601f01602080910402602001604051908101604052809291908181526020018280546103fb90611441565b80156104485780601f1061041d57610100808354040283529160200191610448565b820191906000526020600020905b81548152906001019060200180831161042b57829003601f168201915b5050505050905090565b60008061045d6109ee565b905061046a8185856109f6565b600191505092915050565b6000600254905090565b60008061048a6109ee565b9050610497858285610a08565b6104a2858585610a9c565b60019150509392505050565b6104b6610b90565b6000479050600081116104fe576040517f08c379a00000000000000000000000000000000000000000000000000000000081526004016104f5906114be565b60405180910390fd5b610506610650565b73ffffffffffffffffffffffffffffffffffffffff166108fc829081150290604051600060405180830381858888f1935050505015801561054b573d6000803e3d6000fd5b5050565b60006012905090565b610560610b90565b600081116105a3576040517f08c379a000000000000000000000000000000000000000000000000000000000815260040161059a9061152a565b60405180910390fd5b60006006549050816006819055507fd9cc159fa79112d02593601db522a6696e6c5c82d9e9ca9332f89ec824935bb081836040516105e292919061154a565b60405180910390a15050565b60008060008373ffffffffffffffffffffffffffffffffffffffff1673ffffffffffffffffffffffffffffffffffffffff168152602001908152602001600020549050919050565b61063e610b90565b6106486000610c17565b565b60065481565b6000600560009054906101000a900473ffffffffffffffffffffffffffffffffffffffff16905090565b60606004805461068990611441565b80601f01602080910402602001604051908101604052809291908181526020018280546106b590611441565b80156107025780601f106106d757610100808354040283529160200191610702565b820191906000526020600020905b8154815290600101906020018083116106e557829003601f168201915b5050505050905090565b6000806107176109ee565b9050610724818585610a9c565b600191505092915050565b600060065411610774576040517f08c379a000000000000000000000000000000000000000000000000000000000815260040161076b906115bf565b60405180910390fd5b600034116107b7576040517f08c379a00000000000000000000000000000000000000000000000000000000081526004016107ae90611651565b60405180910390fd5b60006006546107c461054f565b600a6107d091906117d3565b346107db919061181e565b6107e5919061188f565b90506000811161082a576040517f08c379a000000000000000000000000000000000000000000000000000000000815260040161082190611932565b60405180910390fd5b8061083b610836610650565b6105ee565b101561087c576040517f08c379a0000000000000000000000000000000000000000000000000000000008152600401610873906119c4565b60405180910390fd5b61088e610887610650565b3383610a9c565b3373ffffffffffffffffffffffffffffffffffffffff167f8fafebcaf9d154343dad25669bfa277f4fbacd7ac6b0c4fed522580e040a0f3382346040516108d692919061154a565b60405180910390a250565b6000600160008473ffffffffffffffffffffffffffffffffffffffff1673ffffffffffffffffffffffffffffffffffffffff16815260200190815260200160002060008373ffffffffffffffffffffffffffffffffffffffff1673ffffffffffffffffffffffffffffffffffffffff16815260200190815260200160002054905092915050565b610970610b90565b600073ffffffffffffffffffffffffffffffffffffffff168173ffffffffffffffffffffffffffffffffffffffff16036109e25760006040517f1e4fbdf70000000000000000000000000000000000000000000000000000000081526004016109d991906113b7565b60405180910390fd5b6109eb81610c17565b50565b600033905090565b610a038383836001610cdd565b505050565b6000610a1484846108e1565b90507fffffffffffffffffffffffffffffffffffffffffffffffffffffffffffffffff8114610a965781811015610a86578281836040517ffb8f41b2000000000000000000000000000000000000000000000000000000008152600401610a7d939291906119e4565b60405180910390fd5b610a9584848484036000610cdd565b5b50505050565b600073ffffffffffffffffffffffffffffffffffffffff168373ffffffffffffffffffffffffffffffffffffffff1603610b0e5760006040517f96c6fd1e000000000000000000000000000000000000000000000000000000008152600401610b0591906113b7565b60405180910390fd5b600073ffffffffffffffffffffffffffffffffffffffff168273ffffffffffffffffffffffffffffffffffffffff1603610b805760006040517fec442f05000000000000000000000000000000000000000000000000000000008152600401610b7791906113b7565b60405180910390fd5b610b8b838383610eb4565b505050565b610b986109ee565b73ffffffffffffffffffffffffffffffffffffffff16610bb6610650565b73ffffffffffffffffffffffffffffffffffffffff1614610c1557610bd96109ee565b6040517f118cdaa7000000000000000000000000000000000000000000000000000000008152600401610c0c91906113b7565b60405180910390fd5b565b6000600560009054906101000a900473ffffffffffffffffffffffffffffffffffffffff16905081600560006101000a81548173ffffffffffffffffffffffffffffffffffffffff021916908373ffffffffffffffffffffffffffffffffffffffff1602179055508173ffffffffffffffffffffffffffffffffffffffff168173ffffffffffffffffffffffffffffffffffffffff167f8be0079c531659141344cd1fd0a4f28419497f9722a3daafe3b4186f6b6457e060405160405180910390a35050565b600073ffffffffffffffffffffffffffffffffffffffff168473ffffffffffffffffffffffffffffffffffffffff1603610d4f5760006040517fe602df05000000000000000000000000000000000000000000000000000000008152600401610d4691906113b7565b60405180910390fd5b600073ffffffffffffffffffffffffffffffffffffffff168373ffffffffffffffffffffffffffffffffffffffff1603610dc15760006040517f94280d62000000000000000000000000000000000000000000000000000000008152600401610db891906113b7565b60405180910390fd5b81600160008673ffffffffffffffffffffffffffffffffffffffff1673ffffffffffffffffffffffffffffffffffffffff16815260200190815260200160002060008573ffffffffffffffffffffffffffffffffffffffff1673ffffffffffffffffffffffffffffffffffffffff168152602001908152602001600020819055508015610eae578273ffffffffffffffffffffffffffffffffffffffff168473ffffffffffffffffffffffffffffffffffffffff167f8c5be1e5ebec7d5bd14f71427d1e84f3dd0314c0f7b2291e5b200ac8c7c3b92584604051610ea591906112a9565b60405180910390a35b50505050565b600073ffffffffffffffffffffffffffffffffffffffff168373ffffffffffffffffffffffffffffffffffffffff1603610f06578060026000828254610efa9190611a1b565b92505081905550610fd9565b60008060008573ffffffffffffffffffffffffffffffffffffffff1673ffffffffffffffffffffffffffffffffffffffff16815260200190815260200160002054905081811015610f92578381836040517fe450d38c000000000000000000000000000000000000000000000000000000008152600401610f89939291906119e4565b60405180910390fd5b8181036000808673ffffffffffffffffffffffffffffffffffffffff1673ffffffffffffffffffffffffffffffffffffffff16815260200190815260200160002081905550505b600073ffffffffffffffffffffffffffffffffffffffff168273ffffffffffffffffffffffffffffffffffffffff1603611022578060026000828254039250508190555061106f565b806000808473ffffffffffffffffffffffffffffffffffffffff1673ffffffffffffffffffffffffffffffffffffffff168152602001908152602001600020600082825401925050819055505b8173ffffffffffffffffffffffffffffffffffffffff168373ffffffffffffffffffffffffffffffffffffffff167fddf252ad1be2c89b69c2b068fc378daa952ba7f163c4a11628f55a4df523b3ef836040516110cc91906112a9565b60405180910390a3505050565b600081519050919050565b600082825260208201905092915050565b60005b838110156111135780820151818401526020810190506110f8565b60008484015250505050565b6000601f19601f8301169050919050565b600061113b826110d9565b61114581856110e4565b93506111558185602086016110f5565b61115e8161111f565b840191505092915050565b600060208201905081810360008301526111838184611130565b905092915050565b600080fd5b600073ffffffffffffffffffffffffffffffffffffffff82169050919050565b60006111bb82611190565b9050919050565b6111cb816111b0565b81146111d657600080fd5b50565b6000813590506111e8816111c2565b92915050565b6000819050919050565b611201816111ee565b811461120c57600080fd5b50565b60008135905061121e816111f8565b92915050565b6000806040838503121561123b5761123a61118b565b5b6000611249858286016111d9565b925050602061125a8582860161120f565b9150509250929050565b60008115159050919050565b61127981611264565b82525050565b60006020820190506112946000830184611270565b92915050565b6112a3816111ee565b82525050565b60006020820190506112be600083018461129a565b92915050565b6000806000606084860312156112dd576112dc61118b565b5b60006112eb868287016111d9565b93505060206112fc868287016111d9565b925050604061130d8682870161120f565b9150509250925092565b600060ff82169050919050565b61132d81611317565b82525050565b60006020820190506113486000830184611324565b92915050565b6000602082840312156113645761136361118b565b5b60006113728482850161120f565b91505092915050565b6000602082840312156113915761139061118b565b5b600061139f848285016111d9565b91505092915050565b6113b1816111b0565b82525050565b60006020820190506113cc60008301846113a8565b92915050565b600080604083850312156113e9576113e861118b565b5b60006113f7858286016111d9565b9250506020611408858286016111d9565b9150509250929050565b7f4e487b7100000000000000000000000000000000000000000000000000000000600052602260045260246000fd5b6000600282049050600182168061145957607f821691505b60208210810361146c5761146b611412565b5b50919050565b7f4e6f2066756e647320746f207769746864726177000000000000000000000000600082015250565b60006114a86014836110e4565b91506114b382611472565b602082019050919050565b600060208201905081810360008301526114d78161149b565b9050919050565b7f5072696365206d7573742062652067726561746572207468616e207a65726f00600082015250565b6000611514601f836110e4565b915061151f826114de565b602082019050919050565b6000602082019050818103600083015261154381611507565b9050919050565b600060408201905061155f600083018561129a565b61156c602083018461129a565b9392505050565b7f546f6b656e207072696365206d75737420626520736574000000000000000000600082015250565b60006115a96017836110e4565b91506115b482611573565b602082019050919050565b600060208201905081810360008301526115d88161159c565b9050919050565b7f45746865722073656e74206d7573742062652067726561746572207468616e2060008201527f7a65726f00000000000000000000000000000000000000000000000000000000602082015250565b600061163b6024836110e4565b9150611646826115df565b604082019050919050565b6000602082019050818103600083015261166a8161162e565b9050919050565b7f4e487b7100000000000000000000000000000000000000000000000000000000600052601160045260246000fd5b60008160011c9050919050565b6000808291508390505b60018511156116f7578086048111156116d3576116d2611671565b5b60018516156116e25780820291505b80810290506116f0856116a0565b94506116b7565b94509492505050565b60008261171057600190506117cc565b8161171e57600090506117cc565b8160018114611734576002811461173e5761176d565b60019150506117cc565b60ff8411156117505761174f611671565b5b8360020a91508482111561176757611766611671565b5b506117cc565b5060208310610133831016604e8410600b84101617156117a25782820a90508381111561179d5761179c611671565b5b6117cc565b6117af84848460016116ad565b925090508184048111156117c6576117c5611671565b5b81810290505b9392505050565b60006117de826111ee565b91506117e983611317565b92506118167fffffffffffffffffffffffffffffffffffffffffffffffffffffffffffffffff8484611700565b905092915050565b6000611829826111ee565b9150611834836111ee565b9250828202611842816111ee565b9150828204841483151761185957611858611671565b5b5092915050565b7f4e487b7100000000000000000000000000000000000000000000000000000000600052601260045260246000fd5b600061189a826111ee565b91506118a5836111ee565b9250826118b5576118b4611860565b5b828204905092915050565b7f4e6f7420656e6f7567682045746865722073656e7420746f2062757920746f6b60008201527f656e730000000000000000000000000000000000000000000000000000000000602082015250565b600061191c6023836110e4565b9150611927826118c0565b604082019050919050565b6000602082019050818103600083015261194b8161190f565b9050919050565b7f4e6f7420656e6f75676820746f6b656e7320617661696c61626c6520666f722060008201527f73616c6500000000000000000000000000000000000000000000000000000000602082015250565b60006119ae6024836110e4565b91506119b982611952565b604082019050919050565b600060208201905081810360008301526119dd816119a1565b9050919050565b60006060820190506119f960008301866113a8565b611a06602083018561129a565b611a13604083018461129a565b949350505050565b6000611a26826111ee565b9150611a31836111ee565b9250828201905080821115611a4957611a48611671565b5b9291505056fea26469706673582212200b325bcdcd0764902b64153939fbeb3a648b9372c715724b8de844dbd74d312764736f6c634300081c0033",
  "linkReferences": {},
  "deployedLinkReferences": {}
}