{
  "_format": "hh-sol-artifact-1",
  "contractName": "ReferralRewards",
  "sourceName": "contracts/RefferalRewards.sol",
  "abi": [
    {
      "inputs": [
        {
          "internalType": "address",
          "name": "tokenAddress",
          "type": "address"
        }
      ],
      "stateMutability": "nonpayable",
      "type": "constructor"
    },
    {
      "inputs": [
        {
          "internalType": "address",
          "name": "owner",
          "type": "address"
        }
      ],
      "name": "OwnableInvalidOwner",
      "type": "error"
    },
    {
      "inputs": [
        {
          "internalType": "address",
          "name": "account",
          "type": "address"
        }
      ],
      "name": "OwnableUnauthorizedAccount",
      "type": "error"
    },
    {
      "anonymous": false,
      "inputs": [
        {
          "indexed": true,
          "internalType": "address",
          "name": "previousOwner",
          "type": "address"
        },
        {
          "indexed": true,
          "internalType": "address",
          "name": "newOwner",
          "type": "address"
        }
      ],
      "name": "OwnershipTransferred",
      "type": "event"
    },
    {
      "anonymous": false,
      "inputs": [
        {
          "indexed": true,
          "internalType": "address",
          "name": "referee",
          "type": "address"
        },
        {
          "indexed": true,
          "internalType": "address",
          "name": "referrer",
          "type": "address"
        }
      ],
      "name": "ReferralRegistered",
      "type": "event"
    },
    {
      "anonymous": false,
      "inputs": [
        {
          "indexed": true,
          "internalType": "address",
          "name": "user",
          "type": "address"
        },
        {
          "indexed": false,
          "internalType": "uint256",
          "name": "amount",
          "type": "uint256"
        }
      ],
      "name": "RewardClaimed",
      "type": "event"
    },
    {
      "inputs": [
        {
          "internalType": "address",
          "name": "referee",
          "type": "address"
        },
        {
          "internalType": "uint256",
          "name": "rewardAmount",
          "type": "uint256"
        }
      ],
      "name": "calculateReward",
      "outputs": [],
      "stateMutability": "nonpayable",
      "type": "function"
    },
    {
      "inputs": [],
      "name": "claimReward",
      "outputs": [],
      "stateMutability": "nonpayable",
      "type": "function"
    },
    {
      "inputs": [],
      "name": "owner",
      "outputs": [
        {
          "internalType": "address",
          "name": "",
          "type": "address"
        }
      ],
      "stateMutability": "view",
      "type": "function"
    },
    {
      "inputs": [
        {
          "internalType": "address",
          "name": "",
          "type": "address"
        }
      ],
      "name": "referrers",
      "outputs": [
        {
          "internalType": "address",
          "name": "",
          "type": "address"
        }
      ],
      "stateMutability": "view",
      "type": "function"
    },
    {
      "inputs": [
        {
          "internalType": "address",
          "name": "referrer",
          "type": "address"
        }
      ],
      "name": "registerReferral",
      "outputs": [],
      "stateMutability": "nonpayable",
      "type": "function"
    },
    {
      "inputs": [],
      "name": "renounceOwnership",
      "outputs": [],
      "stateMutability": "nonpayable",
      "type": "function"
    },
    {
      "inputs": [],
      "name": "rewardToken",
      "outputs": [
        {
          "internalType": "contract IERC20",
          "name": "",
          "type": "address"
        }
      ],
      "stateMutability": "view",
      "type": "function"
    },
    {
      "inputs": [
        {
          "internalType": "address",
          "name": "",
          "type": "address"
        }
      ],
      "name": "rewards",
      "outputs": [
        {
          "internalType": "uint256",
          "name": "",
          "type": "uint256"
        }
      ],
      "stateMutability": "view",
      "type": "function"
    },
    {
      "inputs": [
        {
          "internalType": "address",
          "name": "newOwner",
          "type": "address"
        }
      ],
      "name": "transferOwnership",
      "outputs": [],
      "stateMutability": "nonpayable",
      "type": "function"
    }
  ],
  "bytecode": "0x608060405234801561001057600080fd5b5060405161112538038061112583398181016040528101906100329190610223565b33600073ffffffffffffffffffffffffffffffffffffffff168173ffffffffffffffffffffffffffffffffffffffff16036100a55760006040517f1e4fbdf700000000000000000000000000000000000000000000000000000000815260040161009c919061025f565b60405180910390fd5b6100b4816100fc60201b60201c565b5080600160006101000a81548173ffffffffffffffffffffffffffffffffffffffff021916908373ffffffffffffffffffffffffffffffffffffffff1602179055505061027a565b60008060009054906101000a900473ffffffffffffffffffffffffffffffffffffffff169050816000806101000a81548173ffffffffffffffffffffffffffffffffffffffff021916908373ffffffffffffffffffffffffffffffffffffffff1602179055508173ffffffffffffffffffffffffffffffffffffffff168173ffffffffffffffffffffffffffffffffffffffff167f8be0079c531659141344cd1fd0a4f28419497f9722a3daafe3b4186f6b6457e060405160405180910390a35050565b600080fd5b600073ffffffffffffffffffffffffffffffffffffffff82169050919050565b60006101f0826101c5565b9050919050565b610200816101e5565b811461020b57600080fd5b50565b60008151905061021d816101f7565b92915050565b600060208284031215610239576102386101c0565b5b60006102478482850161020e565b91505092915050565b610259816101e5565b82525050565b60006020820190506102746000830184610250565b92915050565b610e9c806102896000396000f3fe608060405234801561001057600080fd5b50600436106100935760003560e01c8063715018a611610066578063715018a6146101305780638da5cb5b1461013a578063b88a802f14610158578063f2fde38b14610162578063f7c618c11461017e57610093565b80630700037d146100985780631852e8d9146100c8578063209ab711146100e45780634a3b68cc14610100575b600080fd5b6100b260048036038101906100ad91906109d7565b61019c565b6040516100bf9190610a1d565b60405180910390f35b6100e260048036038101906100dd9190610a64565b6101b4565b005b6100fe60048036038101906100f991906109d7565b6102ea565b005b61011a600480360381019061011591906109d7565b610501565b6040516101279190610ab3565b60405180910390f35b610138610534565b005b610142610548565b60405161014f9190610ab3565b60405180910390f35b610160610571565b005b61017c600480360381019061017791906109d7565b610775565b005b6101866107fb565b6040516101939190610b2d565b60405180910390f35b60036020528060005260406000206000915090505481565b6101bc610821565b6000600260008473ffffffffffffffffffffffffffffffffffffffff1673ffffffffffffffffffffffffffffffffffffffff16815260200190815260200160002060009054906101000a900473ffffffffffffffffffffffffffffffffffffffff169050600073ffffffffffffffffffffffffffffffffffffffff168173ffffffffffffffffffffffffffffffffffffffff160361028f576040517f08c379a000000000000000000000000000000000000000000000000000000000815260040161028690610ba5565b60405180910390fd5b81600360008373ffffffffffffffffffffffffffffffffffffffff1673ffffffffffffffffffffffffffffffffffffffff16815260200190815260200160002060008282546102de9190610bf4565b92505081905550505050565b3373ffffffffffffffffffffffffffffffffffffffff168173ffffffffffffffffffffffffffffffffffffffff1603610358576040517f08c379a000000000000000000000000000000000000000000000000000000000815260040161034f90610c74565b60405180910390fd5b600073ffffffffffffffffffffffffffffffffffffffff16600260003373ffffffffffffffffffffffffffffffffffffffff1673ffffffffffffffffffffffffffffffffffffffff16815260200190815260200160002060009054906101000a900473ffffffffffffffffffffffffffffffffffffffff1673ffffffffffffffffffffffffffffffffffffffff1614610426576040517f08c379a000000000000000000000000000000000000000000000000000000000815260040161041d90610ce0565b60405180910390fd5b80600260003373ffffffffffffffffffffffffffffffffffffffff1673ffffffffffffffffffffffffffffffffffffffff16815260200190815260200160002060006101000a81548173ffffffffffffffffffffffffffffffffffffffff021916908373ffffffffffffffffffffffffffffffffffffffff1602179055508073ffffffffffffffffffffffffffffffffffffffff163373ffffffffffffffffffffffffffffffffffffffff167f5f1ca2fcc108b751843a763e60d2201f593516109d7dbb1b700468f2d4190bb760405160405180910390a350565b60026020528060005260406000206000915054906101000a900473ffffffffffffffffffffffffffffffffffffffff1681565b61053c610821565b61054660006108a8565b565b60008060009054906101000a900473ffffffffffffffffffffffffffffffffffffffff16905090565b610579610821565b6000600360003373ffffffffffffffffffffffffffffffffffffffff1673ffffffffffffffffffffffffffffffffffffffff16815260200190815260200160002054905060008111610600576040517f08c379a00000000000000000000000000000000000000000000000000000000081526004016105f790610d4c565b60405180910390fd5b6000600360003373ffffffffffffffffffffffffffffffffffffffff1673ffffffffffffffffffffffffffffffffffffffff16815260200190815260200160002081905550600160009054906101000a900473ffffffffffffffffffffffffffffffffffffffff1673ffffffffffffffffffffffffffffffffffffffff1663a9059cbb33836040518363ffffffff1660e01b81526004016106a2929190610d6c565b6020604051808303816000875af11580156106c1573d6000803e3d6000fd5b505050506040513d601f19601f820116820180604052508101906106e59190610dcd565b610724576040517f08c379a000000000000000000000000000000000000000000000000000000000815260040161071b90610e46565b60405180910390fd5b3373ffffffffffffffffffffffffffffffffffffffff167f106f923f993c2149d49b4255ff723acafa1f2d94393f561d3eda32ae348f72418260405161076a9190610a1d565b60405180910390a250565b61077d610821565b600073ffffffffffffffffffffffffffffffffffffffff168173ffffffffffffffffffffffffffffffffffffffff16036107ef5760006040517f1e4fbdf70000000000000000000000000000000000000000000000000000000081526004016107e69190610ab3565b60405180910390fd5b6107f8816108a8565b50565b600160009054906101000a900473ffffffffffffffffffffffffffffffffffffffff1681565b61082961096c565b73ffffffffffffffffffffffffffffffffffffffff16610847610548565b73ffffffffffffffffffffffffffffffffffffffff16146108a65761086a61096c565b6040517f118cdaa700000000000000000000000000000000000000000000000000000000815260040161089d9190610ab3565b60405180910390fd5b565b60008060009054906101000a900473ffffffffffffffffffffffffffffffffffffffff169050816000806101000a81548173ffffffffffffffffffffffffffffffffffffffff021916908373ffffffffffffffffffffffffffffffffffffffff1602179055508173ffffffffffffffffffffffffffffffffffffffff168173ffffffffffffffffffffffffffffffffffffffff167f8be0079c531659141344cd1fd0a4f28419497f9722a3daafe3b4186f6b6457e060405160405180910390a35050565b600033905090565b600080fd5b600073ffffffffffffffffffffffffffffffffffffffff82169050919050565b60006109a482610979565b9050919050565b6109b481610999565b81146109bf57600080fd5b50565b6000813590506109d1816109ab565b92915050565b6000602082840312156109ed576109ec610974565b5b60006109fb848285016109c2565b91505092915050565b6000819050919050565b610a1781610a04565b82525050565b6000602082019050610a326000830184610a0e565b92915050565b610a4181610a04565b8114610a4c57600080fd5b50565b600081359050610a5e81610a38565b92915050565b60008060408385031215610a7b57610a7a610974565b5b6000610a89858286016109c2565b9250506020610a9a85828601610a4f565b9150509250929050565b610aad81610999565b82525050565b6000602082019050610ac86000830184610aa4565b92915050565b6000819050919050565b6000610af3610aee610ae984610979565b610ace565b610979565b9050919050565b6000610b0582610ad8565b9050919050565b6000610b1782610afa565b9050919050565b610b2781610b0c565b82525050565b6000602082019050610b426000830184610b1e565b92915050565b600082825260208201905092915050565b7f4e6f20726566657272657220666f722074686973207573657200000000000000600082015250565b6000610b8f601983610b48565b9150610b9a82610b59565b602082019050919050565b60006020820190508181036000830152610bbe81610b82565b9050919050565b7f4e487b7100000000000000000000000000000000000000000000000000000000600052601160045260246000fd5b6000610bff82610a04565b9150610c0a83610a04565b9250828201905080821115610c2257610c21610bc5565b5b92915050565b7f53656c662d726566657272616c73206e6f7420616c6c6f776564000000000000600082015250565b6000610c5e601a83610b48565b9150610c6982610c28565b602082019050919050565b60006020820190508181036000830152610c8d81610c51565b9050919050565b7f526566657272616c20616c726561647920726567697374657265640000000000600082015250565b6000610cca601b83610b48565b9150610cd582610c94565b602082019050919050565b60006020820190508181036000830152610cf981610cbd565b9050919050565b7f4e6f207265776172647320746f20636c61696d00000000000000000000000000600082015250565b6000610d36601383610b48565b9150610d4182610d00565b602082019050919050565b60006020820190508181036000830152610d6581610d29565b9050919050565b6000604082019050610d816000830185610aa4565b610d8e6020830184610a0e565b9392505050565b60008115159050919050565b610daa81610d95565b8114610db557600080fd5b50565b600081519050610dc781610da1565b92915050565b600060208284031215610de357610de2610974565b5b6000610df184828501610db8565b91505092915050565b7f526577617264207472616e73666572206661696c656400000000000000000000600082015250565b6000610e30601683610b48565b9150610e3b82610dfa565b602082019050919050565b60006020820190508181036000830152610e5f81610e23565b905091905056fea2646970667358221220c3c27bcbe4fa8ea45a56e825f8fbd577b41045c5240760c338be825d7df5133a64736f6c634300081c0033",
  "linkReferences": {},
  "deployedLinkReferences": {}
}